:020000040800F2
:10000000000002206D2C00089105000893050008EF
:1000100095050008970500089905000800000000F4
:10002000000000000000000000000000A1290008FE
:100030009B05000800000000412A00089D050008FB
:10004000BD2C0008BD2C0008BD2C0008BD2C0008EC
:10005000BD2C0008BD2C0008BD2C0008BD2C0008DC
:10006000BD2C0008BD2C0008BD2C0008BD2C0008CC
:10007000BD2C0008BD2C0008BD2C0008BD2C0008BC
:10008000BD2C0008BD2C0008BD2C0008BD2C0008AC
:10009000BD2C0008BD2C0008BD2C0008BD2C00089C
:1000A000BD2C0008BD2C0008BD2C0008BD2C00088C
:1000B000BD2C0008BD2C0008BD2C0008BD2C00087C
:1000C000BD2C0008BD2C0008BD2C0008BD2C00086C
:1000D000BD2C0008BD2C0008BD2C0008BD2C00085C
:1000E000BD2C0008BD2C0008BD2C0008BD2C00084C
:1000F000BD2C0008BD2C0008BD2C0008BD2C00083C
:10010000BD2C0008BD2C0008BD2C0008BD2C00082B
:10011000BD2C0008BD2C0008BD2C0008BD2C00081B
:10012000BD2C0008BD2C0008BD2C0008BD2C00080B
:10013000BD2C0008BD2C0008BD2C0008BD2C0008FB
:10014000BD2C0008BD2C0008BD2C0008BD2C0008EB
:10015000BD2C0008BD2C0008BD2C0008BD2C0008DB
:10016000BD2C0008BD2C0008BD2C0008BD2C0008CB
:10017000BD2C0008BD2C0008BD2C000800000000AC
:08018000BD2C0008BD2C000895
:1001900053B94AB9002908BF00281CBF4FF0FF31EE
:1001A0004FF0FF3000F00CB8ADF1080C6DE904CE53
:1001B00002F0C0FDDDF804E0DDE9022304B0704781
:1001C000704700BF10B5054C237833B9044B13B109
:1001D0000448AFF300800123237010BD30000020DD
:1001E00000000000F02F000808B5034B1BB10349C5
:1001F0000348AFF3008008BD000000003400002079
:10020000F02F000810B504462188034800F00AFECC
:10021000606800F0CDFEF7E70000024072B6FEE72E
:1002200010B594B008AC30220021204602F047FD02
:1002300000230393049305930693079301931F4AA6
:10024000116C41F080511164126C02F080520192E5
:10025000019A02931A4A116841F4804111601268B0
:1002600002F480420292029A0222089201210B912A
:1002700010210C910E920F930823109332231193A7
:100280000423129307231393204600F0B5F988B98D
:100290000F23039302230493002105914FF4A053ED
:1002A00006934FF48053079303A800F00FFC18B98E
:1002B00014B010BDFFF7B2FFFFF7B0FF00380240E7
:1002C0000070004000B583B000F046FEFFF7A8FFC5
:1002D00000F03CF8144D002401940094134B80224C
:1002E0001349284601F0DDFB01940094114B802254
:1002F0001149284601F0D5FB019400940F4B802250
:100300000F49284601F0CDFB019400940D4B80224B
:100310000D49284601F0C5FB02F01CF900F028F950
:1003200002F02AF9FEE700BF0502000818000020CD
:1003300008300008100000201030000808000020DD
:100340001830000800000020203000082DE9F04F90
:100350008DB007AD002407946C60AC60EC602C613C
:1003600001947A4B1A6B42F010021A631A6B02F076
:1003700010020192019A02941A6B42F004021A636D
:100380001A6B02F004020292029A03941A6B42F072
:1003900080021A631A6B02F080020392039A04949B
:1003A0001A6B42F001021A631A6B02F00102049206
:1003B000049A05941A6B42F002021A631A6B02F057
:1003C00002020592059A06941A6B42F008021A631B
:1003D0001B6B03F008030693069B224608215C482A
:1003E00000F01AFDDFF8749101221146484600F032
:1003F00013FDDFF86CA122464FF21001504600F0C9
:100400000BFD082607964FF00108CDF820800994CF
:100410000A9429464E4800F009FCCDF81C80CDF81E
:10042000208009940A942946484600F0FFFB07966D
:100430000226089609940A944FF0050BCDF82CB0CB
:100440002946484600F0F2FBCDF81C804FF4881393
:10045000089309943F4F2946384600F0E7FB1023E4
:100460000793089609940A9406230B932946384665
:1004700000F0DCFBE0230793089609940A94CDF87A
:100480002CB02946384600F0D1FB0422079208948C
:1004900009942946304800F0C9FB4FF48063079364
:1004A000089609940A94CDF82CB029462A4800F001
:1004B000BDFB4FF210030793CDF8208009940A94F6
:1004C0002946504600F0B2FB4FF4A4530793089618
:1004D00009940A9406230B932946484600F0A6FB8C
:1004E0004FF400730793089409942946384600F0A6
:1004F0009DFB4FF4E0530793089609940A940A234E
:100500000B932946384600F091FB2023079308946B
:1005100009942946504600F089FB4FF41073079365
:100520001223089309940A9404220B9229460A483C
:1005300000F07CFB07964FF490130893099429462A
:10054000034800F073FB0DB0BDE8F08F00380240A7
:100550000010024000000240000402400008024077
:10056000000C024008B5012002F07CF8FBE7000017
:1005700008B5044A0021044802F01AF8034B186039
:1005800008BD00BF4C300008650500084C00002085
:10059000FEE7FEE7FEE7FEE7FEE7704708B500F07E
:1005A000F5FC01F055FD012800D108BD02F07AFAF2
:1005B000FBE7000000B583B0002200920D4B596CA0
:1005C00041F480415964596C01F4804100910099D3
:1005D0000192196C41F0805119641B6C03F0805337
:1005E0000193019B0F216FF0010000F06BFC03B041
:1005F0005DF804FB00380240002800F0E08170B58F
:1006000082B00446036813F0010F3BD09F4B9B68F8
:1006100003F00C03042B2CD09C4B9B6803F00C03C1
:10062000082B21D06368B3F5803F4FD0B3F5A02FDE
:1006300052D0964B1A6822F480321A601A6822F45B
:1006400080221A606368002B50D000F0ABFC054696
:100650008E4B1B6813F4003F14D100F0A3FC401B29
:100660006428F5D90320B1E1884B5B6813F4800F4F
:10067000D8D0864B1B6813F4003F03D06368002B6F
:1006800000F09F81236813F0020F54D07F4B9B68CA
:1006900013F00C0F3ED07D4B9B6803F00C03082B2E
:1006A00033D0E368002B68D0794B01221A6000F048
:1006B00079FC0546754B1B6813F0020F54D100F00E
:1006C00071FC401B0228F5D903207FE16F4A1368B3
:1006D00043F480331360B5E76C4B1A6842F4802210
:1006E0001A601A6842F480321A60ABE700F05AFCD4
:1006F0000546664B1B6813F4003FC3D000F052FC64
:10070000401B6428F5D9032060E1604B5B6813F45B
:10071000800FC6D15D4B1B6813F0020F03D0E36856
:10072000012B40F05081594A136823F0F8032169E6
:1007300043EAC1031360236813F0080F42D06369D2
:100740006BB3534B0122C3F8802E00F02BFC0546FF
:100750004E4B5B6F13F0020F34D100F023FC401BB3
:100760000228F5D9032031E1484A136823F0F80341
:10077000216943EAC1031360DDE7454B00221A609B
:1007800000F010FC0546414B1B6813F0020FD2D05D
:1007900000F008FC401B0228F5D9032016E13C4B71
:1007A0000022C3F8802E00F0FDFB0546374B5B6F3F
:1007B00013F0020F06D000F0F5FB401B0228F5D91C
:1007C000032003E1236813F0040F77D02F4B1B6C39
:1007D00013F0805F33D1002301932C4B1A6C42F04D
:1007E00080521A641B6C03F080530193019B012516
:1007F000284B1B6813F4807F23D0A368012B34D0CF
:10080000052B38D0214B1A6F22F001021A671A6F9C
:1008100022F004021A67A368002B3DD000F0C2FB4F
:1008200006461A4B1B6F13F0020F46D100F0BAFBBD
:10083000801B41F288339842F3D90320C6E000259B
:10084000D6E7144A136843F48073136000F0AAFBE0
:100850000646104B1B6813F4807FCED100F0A2FB3C
:10086000801B0228F5D90320B0E0084A136F43F03B
:1008700001031367CFE7054B1A6F42F004021A67B2
:100880001A6F42F001021A67C5E700BF0038024044
:10089000000047420070004000F084FB0646524BC7
:1008A0001B6F13F0020F08D000F07CFB801B41F29D
:1008B00088339842F3D9032088E0EDB9A369002B6F
:1008C00000F08380484A926802F00C02082A51D056
:1008D000022B17D0454B00221A6600F063FB04463A
:1008E000414B1B6813F0007F42D000F05BFB001B04
:1008F0000228F5D9032069E03B4A136C23F08053AA
:100900001364DBE7394B00221A6600F04BFB054607
:10091000354B1B6813F0007F06D000F043FB401BF3
:100920000228F5D9032051E0E369226A1343626A81
:1009300043EA8213A26A5208013A43EA0243E26A96
:1009400043EA0263284A5360284B01221A6600F0EA
:1009500029FB0446244B1B6813F0007F06D100F0EE
:1009600021FB001B0228F5D903202FE000202DE0F9
:1009700000202BE0012B2BD01B4B5B6803F4800184
:10098000E269914226D103F03F02216A8A4223D1D3
:10099000616A47F6C0721A40B2EB811F1ED103F4A0
:1009A0004031A26A5208013AB1EB024F18D103F06C
:1009B0007063E26AB3EB026F14D1002006E00120FD
:1009C0007047012002E0012000E0002002B070BD6D
:1009D0000120FBE70120F9E70120F7E70120F5E717
:1009E0000120F3E70120F1E7003802400000474210
:1009F00008B5334B9B6803F00C03042B5BD0082B2A
:100A00005BD12F4B5A6802F03F025B6813F4800FF2
:100A10002CD02B4B5868C0F388104FEA401CBCEB1D
:100A2000000C6EEB0E0E4FEA8E1343EA9C634FEA06
:100A30008C11B1EB0C0163EB0E03DB0043EA517345
:100A4000C90011EB000C43F10003590200234FEAE7
:100A50004C2041EADC51FFF79BFB194B5B68C3F369
:100A6000014301335B00B0FBF3F008BD144B586841
:100A7000C0F388104FEA401CBCEB000C6EEB0E0E6E
:100A80004FEA8E1343EA9C634FEA8C11B1EB0C01E1
:100A900063EB0E03DB0043EA5173C90011EB000C5A
:100AA00043F10003990200234FEA8C2041EA9C5154
:100AB000FFF76EFBD1E70348D7E70348D5E700BF50
:100AC0000038024000127A000024F400002800F0F0
:100AD0009B8070B50D4604464F4B1B6803F007031F
:100AE0008B4208D2CBB24C4A1370136803F0070351
:100AF0008B4240F08B80236813F0020F17D013F065
:100B0000040F04D0454A936843F4E053936023688C
:100B100013F0080F04D0414A936843F46043936094
:100B20003E4A936823F0F003A1680B439360236867
:100B300013F0010F32D06368012B21D09A1E012AD5
:100B400025D9364A126812F0020F61D033498A68FB
:100B500022F0030213438B6000F024FA06462F4B69
:100B60009B6803F00C036268B3EB820F16D000F0B1
:100B700019FA801B41F288339842F0D9032042E0F1
:100B8000264A126812F4003FE0D101203BE0234ADC
:100B9000126812F0007FD9D1012034E01E4B1B688F
:100BA00003F00703AB4207D9EAB21B4B1A701B686C
:100BB00003F00703AB422DD1236813F0040F06D0D6
:100BC000164A936823F4E053E1680B43936023686B
:100BD00013F0080F07D0114A936823F4604321698A
:100BE00043EAC1039360FFF703FF0C4B9B68C3F319
:100BF00003130B4AD35CD8400A4B18600A4B1868A1
:100C000000F084F9002070BD012070470120FAE750
:100C10000120F8E70120F6E7003C024000380240DE
:100C200070300008280000202400002000230F2B33
:100C300000F2E98070B582B065E085684FEA430E46
:100C4000032404FA0EF425EA0405CC6804FA0EF431
:100C50002C438460446824EA02044A68C2F3001208
:100C60009A40224342605CE0DC08083450F82420BB
:100C700003F00705AD004FF00F0E0EFA05FE22EA55
:100C80000E0E0A69AA4042EA0E0240F824205CE0F7
:100C9000072200E0002202FA0EF22A4302345A4DE3
:100CA00045F82420594A94686FEA0C0224EA0C059E
:100CB0004E6816F4801F01D04CEA0405534CA56021
:100CC000E46802EA04054E6816F4001F01D04CEAFD
:100CD00004054E4CE560646802EA04054E6816F4AB
:100CE000003F01D04CEA0405484C6560246822406E
:100CF0004D6815F4803F01D04CEA0402434C226059
:100D000001330F2B7DD801229A400C6804EA020CB3
:100D100032EA0404F4D14C6804F00304013C012CD1
:100D20008BD94A6802F00302032A09D0C4685D0027
:100D30000322AA4024EA02048A68AA402243C2602D
:100D40004A6802F00302022A8ED004684FEA430E7A
:100D5000032202FA0EF224EA02044A6802F00302B5
:100D600002FA0EF2224302604A6812F4403FC7D0F2
:100D700000220192264A546C44F480445464526C1C
:100D800002F480420192019A9C08A51C1E4A52F866
:100D9000255003F0030E4FEA8E0E0F2202FA0EF2D8
:100DA00025EA02051B4A90423FF474AF02F58062C7
:100DB00090421AD002F58062904218D002F580620B
:100DC000904216D002F58062904214D002F5806203
:100DD000904212D002F58062904210D002F58062FB
:100DE00090423FF455AF082255E7012253E7022213
:100DF00051E703224FE704224DE705224BE7062285
:100E000049E702B070BD704700380140003C014026
:100E100000380240000002400AB1816170470904B5
:100E200081617047436901EA030221EA030141EA53
:100E30000241816170470000002808DB0901C9B246
:100E400000F1604000F5614080F80013704700F049
:100E50000F000901C9B2014B1954704714ED00E0AD
:100E600000B500F00700C0F1070CBCF1040F28BF6B
:100E70004FF0040C031D062B0FD9C31E4FF0FF3E8D
:100E80000EFA0CF021EA000199400EFA03FE22EA64
:100E90000E0241EA02005DF804FB0023EEE70000C9
:100EA000074AD36823F4E0631B041B0C000200F420
:100EB000E060034343F0BF6343F40033D360704703
:100EC00000ED00E010B50446054BD868C0F30220E1
:100ED000FFF7C6FF01462046FFF7AEFF10BD00BF7B
:100EE00000ED00E00138B0F1807F0BD24FF0E0233D
:100EF0005861054AF02182F82310002098610722EA
:100F00001A6170470120704700ED00E010B50446FB
:100F10000E4B1A784FF47A73B3FBF2F30C4A106855
:100F2000B0FBF3F0FFF7DEFF68B90F2C01D9012009
:100F30000AE0002221464FF0FF30FFF7C3FF054BC8
:100F40001C60002000E0012010BD00BF2000002038
:100F5000280000202400002008B50B4B1A6842F43A
:100F600000721A601A6842F480621A601A6842F4C9
:100F700080721A600320FFF793FF0F20FFF7C6FF70
:100F8000FFF718FB002008BD003C0240034A11682F
:100F9000034B1B780B441360704700BF50000020C8
:100FA00020000020014B1868704700BF500000204F
:100FB00038B50446FFF7F6FF0546B4F1FF3F02D00F
:100FC000044B1B781C44FFF7EDFF401BA042FAD3F3
:100FD00038BD00BF20000020034AD2F8883043F417
:100FE0007003C2F88830704700ED00E000F108039C
:100FF00043604FF0FF328260C360036100230360EF
:10100000704700230361704743684B609A688A60A9
:10101000516099600861036801330360704730B420
:101020000D68B5F1FF3F11D000F108031C465B6865
:101030001A68AA42FAD963684B6099608C60616053
:10104000086103680133036030BC70470469F2E74C
:101050000369416882688A60416851605A688242C7
:1010600006D0002202611A68013A1A6018687047B7
:1010700082685A60F5E710B5044601F0A3FCA26B44
:10108000E36B9A4204D0002401F0BEFC204610BD60
:101090000124F9E710B5044601F094FCA36B23B9D1
:1010A000012401F0B1FC204610BD0024F9E770B521
:1010B00004461546866B026C5AB903681BB10020C2
:1010C0000136A66370BD806800F0D2FF0023A360E4
:1010D000F6E76DB9406801F01FFE6368226C1344A7
:1010E0006360A268934219D3236863602846E7E7E8
:1010F000C06801F011FEE368226C51429B1AE36064
:101100002268934202D2A3680B44E360022D01D00F
:101110000020D5E726B1013E0020D1E72846CFE7E1
:101120000020CDE70346026C6AB110B50846D968C5
:101130001144D9609C68A14201D31968D960D9686B
:1011400001F0EAFD10BD704738B5054601F03AFCE4
:1011500095F8454064B201E0013C64B2002C0ADD20
:101160006B6A43B105F1240000F0D6FE0028F3D0ED
:1011700000F068FFF0E7FF2385F8453001F044FCFC
:1011800001F020FC95F8444064B201E0013C64B2F7
:10119000002C0ADD2B6943B105F1100000F0BCFE04
:1011A0000028F3D000F04EFFF0E7FF2385F844302D
:1011B00001F02AFC38BD38B5E0B10D46044601F017
:1011C00001FC2368E26B216C01FB0230A06000206F
:1011D000A0636360013A02FB0133E360FF2384F8FC
:1011E000443084F84530FDB9236963B901F00CFC43
:1011F000012038BD4FF0500383F31188BFF36F8F88
:10120000BFF34F8FFEE704F1100000F085FE0028C9
:10121000ECD04FF0E0234FF08052C3F8042DBFF321
:101220004F8FBFF36F8FE1E704F11000FFF7DEFE91
:1012300004F12400FFF7DAFED8E738B51D46049C18
:101240000B4649B92460E063236401212046FFF77F
:10125000B2FF84F84C5038BD2260F4E740B94FF03B
:10126000500383F31188BFF36F8FBFF34F8FFEE7F7
:1012700010B584B01C46844653B192B189B94FF081
:10128000500383F31188BFF36F8FBFF34F8FFEE7D7
:101290004FF0500383F31188BFF36F8FBFF34F8F6D
:1012A000FEE76AB150230393039B502B13D04FF0FA
:1012B000500383F31188BFF36F8FBFF34F8FFEE7A7
:1012C0000029EFD04FF0500383F31188BFF36F8FE5
:1012D000BFF34F8FFEE7039B012384F84630009451
:1012E0009DF818306046FFF7A8FF204604B010BDF7
:1012F000F0B585B0019288B10F461D460446B1B1E4
:10130000022D20D1E36B012B1DD04FF0500383F34E
:101310001188BFF36F8FBFF34F8FFEE74FF050037D
:1013200083F31188BFF36F8FBFF34F8FFEE7036C1A
:10133000002BE5D04FF0500383F31188BFF36F8F7C
:10134000BFF34F8FFEE700F083FE064658B9019BBE
:10135000002B48D04FF0500383F31188BFF36F8FF9
:10136000BFF34F8FFEE700263DE02A463946204670
:10137000FFF79DFE636A7BB948B14FF0E0234FF061
:101380008052C3F8042DBFF34F8FBFF36F8F01F06E
:101390003BFB012005B0F0BD04F1240000F0BCFDD2
:1013A0000028F4D04FF0E0234FF08052C3F8042D12
:1013B000BFF34F8FBFF36F8FE9E701F025FB0020EC
:1013C000E8E702A800F0EEFD012619E0002384F80A
:1013D000443021E0002384F8453023E02046FFF725
:1013E000B3FE00F077FC01F0EDFAA26BE36B9A42DA
:1013F000BBD3022DB9D0019B002BDED0002EE0D054
:1014000001F002FB00F0CCFB01F0DCFA94F8442080
:1014100052B2B2F1FF3FD9D094F8452052B2B2F1A6
:10142000FF3FD7D001F0F0FA01A902A800F0C6FDF5
:10143000D8B92046FFF71FFE0028CFD0019904F14C
:10144000100000F035FD2046FFF77EFE00F042FC64
:101450000028C8D14FF0E0234FF08052C3F8042D8C
:10146000BFF34F8FBFF36F8FBDE72046FFF76CFED2
:1014700000F030FC00208DE72DE9F84390B10F46D5
:1014800016461C460546B1B1022C20D1EB6B012B50
:101490001DD04FF0500383F31188BFF36F8FBFF35C
:1014A0004F8FFEE74FF0500383F31188BFF36F8F28
:1014B000BFF34F8FFEE7036C002BE5D04FF05003D6
:1014C00083F31188BFF36F8FBFF34F8FFEE701F0F7
:1014D0009FFBEFF311884FF0500383F31188BFF3A4
:1014E0006F8FBFF34F8FAA6BEB6B9A4206D3022C20
:1014F00004D0002088F31188BDE8F88395F8459062
:101500004FFA89F9AB6B224639462846FFF7CFFDE3
:10151000B9F1FF3F06D009F101035BB285F8453010
:101520000120E7E76B6A0BB90120E3E705F124002E
:1015300000F0F2FC18B126B101203060DAE701209A
:10154000D8E70120D6E7F0B585B0019290B10F46FB
:101550000446C1B100F07CFD064600BB019B002B98
:101560005ED04FF0500383F31188BFF36F8FBFF34A
:101570004F8FFEE74FF0500383F31188BFF36F8F57
:10158000BFF34F8FFEE7036C002BE3D04FF0500307
:1015900083F31188BFF36F8FBFF34F8FFEE70026F1
:1015A0003EE039462046FFF7BDFD013DA5632369B6
:1015B00023B901F029FA012005B0F0BD04F11000B3
:1015C00000F0AAFC0028F4D04FF0E0234FF0805246
:1015D000C3F8042DBFF34F8FBFF36F8FE9E701F01E
:1015E00013FA0020E8E702A800F0DCFC012621E065
:1015F000002384F8443029E0002384F845302BE0B0
:101600002046FFF7A1FD00F065FB09E02046FFF74B
:101610009BFD00F05FFB2046FFF73CFD00283FD11B
:1016200001F0D0F9A56B002DBBD1019B002BD6D0CA
:10163000002ED8D001F0E8F900F0B2FA01F0C2F9BA
:1016400094F844305BB2B3F1FF3FD1D094F8453009
:101650005BB2B3F1FF3FCFD001F0D6F901A902A8E8
:1016600000F0ACFC0028D1D12046FFF713FD002884
:10167000C6D0019904F1240000F01AFC2046FFF7BF
:1016800063FD00F027FB0028CAD14FF0E0234FF0A4
:101690008052C3F8042DBFF34F8FBFF36F8FBFE7A6
:1016A000002089E70023072B0CD8074A52F8332083
:1016B0000AB10133F7E7044A42F8331002EBC302E0
:1016C00050607047704700BF5400002070B504465A
:1016D0000D46164601F076F994F844305BB2B3F14A
:1016E000FF3F0DD094F845305BB2B3F1FF3F0BD014
:1016F00001F08AF9A36B5BB12046FFF725FD70BDB1
:10170000002384F84430EDE7002384F84530EFE708
:101710003246294604F1240000F0E2FBECE7000029
:10172000084B1B681B6823B9074B4FF0FF321A6048
:101730007047044B1B68DB68DB685A68024B1A6011
:10174000704700BF040100209C0000202DE9F047F5
:1017500080460D4617469946089EDDF824A00A9C4F
:101760009200A521206B01F0AAFA236B07F18042B9
:10177000013A03EB820727F00707A5B34FF0000CEF
:10178000BCF10F0F09D815F80C3004EB0C0282F8ED
:10179000343013B10CF1010CF2E7002384F843302C
:1017A000372E00D93726E662E66400252565201D20
:1017B000FFF727FC04F11800FFF723FC2461C6F1B2
:1017C0003806A6616462656584F858504A46414609
:1017D000384601F0CFF82060BAF1000F01D0CAF806
:1017E0000040BDE8F087002384F83430D8E70000DB
:1017F00038B5002407E004EB840293000E48184437
:10180000FFF7F4FB0134372CF5D90C4D2846FFF7D0
:10181000EDFB0B4C2046FFF7E9FB0A48FFF7E6FB20
:101820000948FFF7E3FB0948FFF7E0FB084B1D60A1
:10183000084B1C6038BD00BF300100201C01002097
:1018400008010020EC000020D8000020C00000208B
:10185000040100200001002010B5044601F0B2F898
:10186000224A136801331360214B1B685BB1214B83
:101870001B686BB91E4B1B68DA6AE36A9A4207D889
:101880001B4B1C6004E01A4B1C601368012B29D011
:10189000194A1368013313606364E06A174B1B68CD
:1018A000984201D9154B186000EB8000211D144BA4
:1018B00003EB8000FFF7A8FB01F0A6F80D4B1B68B7
:1018C0007BB10B4B1B68DA6AE36A9A4209D24FF08C
:1018D000E0234FF08052C3F8042DBFF34F8FBFF3C6
:1018E0006F8F10BDFFF784FFD2E700BFBC00002060
:1018F00090050020B0000020A0000020B4000020CF
:101900003001002010B5044690F8593063B1012B26
:1019100011D0022B0ED04FF0500383F31188BFF388
:101920006F8FBFF34F8FFEE7006B00F0A7FF2046DD
:1019300000F0A4FF10BD00F0A1FFFBE70F4B1B68F8
:10194000D3B110B501F03EF80D4BDB68DC68201D0B
:10195000FFF77EFB0B4A1368013B1360074A1368CD
:10196000013B136001F050F82046FFF7CBFF034B1B
:101970001B68002BE6D110BD704700BFD4000020CB
:10198000D8000020BC00002008B5FFF7D7FF074BA8
:101990001B68012BF9D94FF0E0234FF08052C3F8B8
:1019A000042DBFF34F8FBFF36F8FEEE730010020A0
:1019B00070B504460D46174B1E68174B1868043067
:1019C000FFF746FBB4F1FF3F0DD03444124B1B68C8
:1019D0005C60A64210D9114B18680F4B196804318E
:1019E000FFF71DFB70BD002DEFD00B4B19680431C4
:1019F0000B48FFF709FBF5E70A4B1868064B196817
:101A00000431FFF70CFB084B1B68A342EAD9064BD5
:101A10001C60E7E7B80000209005002000010020CE
:101A2000C0000020040100209C00002030B587B0D9
:101A30000B9C7CB10C9DB5B15C250495049D5C2D7F
:101A40001AD04FF0500383F31188BFF36F8FBFF3A9
:101A50004F8FFEE74FF0500383F31188BFF36F8F72
:101A6000BFF34F8FFEE74FF0500383F31188BFF3AE
:101A70006F8FBFF34F8FFEE7049D0C9D2C630224F4
:101A800085F8594000240394029505AC01940A9C02
:101A90000094FFF75BFE0C98FFF7DEFE059807B099
:101AA00030BD2DE9F04385B00746884614461E46F2
:101AB000900000F061FE08B381465C2000F05CFEFF
:101AC0000546A8B1C0F83090002380F85930039340
:101AD00002900D9B01930C9B009333462246414696
:101AE0003846FFF733FE2846FFF7B6FE012007E031
:101AF000484600F0C3FE4FF0FF3001E04FF0FF30EA
:101B000005B0BDE8F083000010B588B0002405944E
:101B1000069407AA06A905A800F0B2FD059B02934A
:101B2000069B019300942346079A17491748FFF72D
:101B30007DFF174B1860C0B100F04EFB012815D196
:101B40004FF0500383F31188BFF36F8FBFF34F8FB4
:101B5000104B4FF0FF321A600F4B01221A600F4BEF
:101B600000221A6000F0C8FF03E00020B0F1FF3F40
:101B700001D008B010BD4FF0500383F31188BFF3BC
:101B80006F8FBFF34F8FFEE73430000889190008CC
:101B9000980000209C000020B0000020B800002029
:101BA000024A136801331360704700BF940000209D
:101BB000014B1868704700BFB8000020F8B53A4BD9
:101BC0001B68002B69D1394B1D6801351D60C5B9F3
:101BD000374B1B681B6843B14FF0500383F31188E8
:101BE000BFF36F8FBFF34F8FFEE7314A1168314B60
:101BF000186810601960304A136801331360FFF7EA
:101C00008FFD2E4B1B68AB423DD900272C4B1B6828
:101C1000DB6A03EB83039A002A4B9B58012B00D904
:101C20000127294B1B68002B3CD001273AE00127F4
:101C30001F4B1B681B6843B31D4B1B68DB68DC68CC
:101C400063689D4226D3261D3046FFF701FAA36A3A
:101C50001BB104F11800FFF7FBF9E36A1B4A126895
:101C6000934201D9194A136003EB83039A0031466A
:101C700014481044FFF7C8F9E26A114B1B68DB6A8D
:101C80009A42D4D2D4E70027D2E70C4B4FF0FF3270
:101C90001A60BBE7094A1360B8E70D4A13680133BD
:101CA000136000273846F8BD94000020B8000020DB
:101CB0000401002000010020A40000209C0000205E
:101CC0009005002030010020A8000020B400002072
:101CD000AC00002038B5354B1B6843B94FF05003BA
:101CE00083F31188BFF36F8FBFF34F8FFEE700F0D0
:101CF00069FE2E4B1A68013A1A601B68002B4FD1FF
:101D00002B4B1B680BB900244BE00024294B1B68AC
:101D10001BB3284BDB68DC6804F11800FFF798F967
:101D2000251D2846FFF794F9E06A234B1B6898426B
:101D300001D9214B186000EB800029461F4B03EBB3
:101D40008000FFF761F9E26A1D4B1B68DB6A9A426B
:101D5000DCD31C4B01221A60D8E70CB1FFF7E0FC82
:101D6000194B1C6884B9174B1C68D4B14FF0E023A1
:101D70004FF08052C3F8042DBFF34F8FBFF36F8F26
:101D800001240EE0013C07D0FFF718FF0028F9D02E
:101D90000C4B01221A60F5E70B4B00221A60E2E7B8
:101DA000002400F031FE204638BD00BF9400002022
:101DB000BC000020EC000020B40000203001002016
:101DC00090050020A8000020AC00002010B5A8B1AC
:101DD0000446104B1B6843B14FF0500383F3118846
:101DE000BFF36F8FBFF34F8FFEE7FFF7D9FE0021E0
:101DF0002046FFF7DDFDFFF76DFF48B94FF0E02308
:101E00004FF08052C3F8042DBFF34F8FBFF36F8F95
:101E100010BD00BF94000020204B1B681BB1204B5D
:101E200001221A6070471E4B00221A601D4B1B686E
:101E300003EB83018A001C498A585AB90BB1013B54
:101E4000F6E74FF0500383F31188BFF36F8FBFF3B2
:101E50004F8FFEE7084603EB83018A000244516876
:101E60004968516003EB830C4FEA8C02083202444C
:101E700091420BD003EB830291000B4A0A44526853
:101E8000D1680A4A1160074A136070474868624681
:101E90009100054A0A445060ECE700BF940000201E
:101EA000A8000020B4000020300100209005002090
:101EB00058B110B50C46094A11681831FFF7AFF850
:101EC00001212046FFF774FD10BD4FF0500383F34E
:101ED0001188BFF36F8FBFF34F8FFEE7900500208F
:101EE00038B570B10D4614460A4A11681831FFF72B
:101EF0008BF80CB14FF0FF3521462846FFF758FD0F
:101F000038BD4FF0500383F31188BFF36F8FBFF3D9
:101F10004F8FFEE79005002038B5C368DC6824B316
:101F200004F118052846FFF793F8184B1B682BBBE4
:101F3000251D2846FFF78CF8E06A154B1B68984270
:101F400001D9134B186000EB80002946114B03EBBD
:101F50008000FFF759F8E26A0F4B1B68DB6A9A4270
:101F600011D901200D4B186038BD4FF0500383F399
:101F70001188BFF36F8FBFF34F8FFEE729460848E4
:101F8000FFF742F8E7E70020EEE700BF94000020EB
:101F9000B40000203001002090050020A80000209F
:101FA000EC000020034B1B680360034B1B6843607D
:101FB000704700BFA4000020B8000020E0B170B559
:101FC0000C46054609B300F0FDFC1C4B19686B6814
:101FD000C81A2268B2F1FF3F28D0DFF864C0DCF8ED
:101FE00000C02E68664501D08B4224D9824215D8A4
:101FF0000023236001241AE04FF0500383F311887B
:10200000BFF36F8FBFF34F8FFEE74FF0500383F3A3
:102010001188BFF36F8FBFF34F8FFEE75B1A134436
:1020200023602846FFF7BEFF002400E0002400F0F4
:10203000EBFC204670BD0124F9E700BFB80000208A
:10204000A4000020014B01221A607047A800002064
:10205000054B1B6833B1054B1B680BB10020704763
:102060000220704701207047B0000020940000203B
:1020700000283BD038B504461E4B1B68834208D06D
:102080004FF0500383F31188BFF36F8FBFF34F8F6F
:10209000FEE7036D43B94FF0500383F31188BFF39C
:1020A0006F8FBFF34F8FFEE7013B0365C16AC26CC0
:1020B00091421DD00BB1002038BD051D2846FEF70A
:1020C000C7FFE06CE062C0F13803A3610A4B1B68F4
:1020D000984201D9084B186000EB80002946074B55
:1020E00003EB8000FEF790FF0120E5E7002070473A
:1020F0000020E1E790050020B4000020300100201E
:10210000064B1A6813682BB90123036023B9D368FF
:10211000186870470023F8E70020704794060020F5
:1021200008B54160006191420CD8D21A83699A4285
:1021300001D3012008BD011D094B1868FEF76FFF90
:102140000020F7E79A4201D2994206D2011D054BC1
:102150001868FEF764FF0020ECE70120EAE700BF03
:10216000900600209406002030B583B000F02AFCD1
:10217000114B1B681BB100F047FC03B030BD0F4D85
:102180002846FEF733FF0E4C2046FEF72FFF0D4B7F
:102190001D600D4B1C60002300930C4B0C4A10215A
:1021A0000A20FFF75BF8044B18600028E3D00949C8
:1021B000FFF778FADFE700BF8C060020AC060020AE
:1021C0009806002094060020900600209405002028
:1021D000E40500203C30000810B588B0FFF7C4FFCC
:1021E000124B1B68CBB100240594069407AA06A9DC
:1021F00005A800F051FA059B0293069B0193022368
:1022000000932346079A0A490A48FFF70FFC0A4B36
:10221000186010B1012008B010BD4FF0500383F3D7
:102220001188BFF36F8FBFF34F8FFEE78C0600203E
:10223000443000083D25000888060020B8B19C46BF
:1022400003461848006858B300B585B00091019264
:10225000029305291CDCFFF7FBFE022810D00023A7
:102260001A4669460F480068FFF742F815E04FF03C
:10227000500383F31188BFF36F8FBFF34F8FFEE7D7
:102280000023069A694607480068FFF731F804E022
:10229000002362466946FFF7EFF805B05DF804FBDE
:1022A000002070478C06002070B582B01B4B1B6865
:1022B0001A6862B3DB681E68DC68251D2846FEF7D5
:1022C000C7FE236A2046984794F8283013F0040F7D
:1022D000ECD0A36933449E4207D26360246129464F
:1022E0000E4B1868FEF79BFEE0E7002100910B46BD
:1022F00032462046FFF7A2FF0028D7D14FF0500307
:1023000083F31188BFF36F8FBFF34F8FFEE7044A4B
:10231000106802490860136002B070BD9406002086
:102320009006002038B50546FFF742FC0446074BEF
:102330001B68834205D800232B60044B1C60204699
:1023400038BDFFF7B1FF01232B60F6E784060020BC
:1023500070B582B006460D4617490968C968CC6851
:10236000201DFEF775FE94F828C01CF0040F08D15C
:102370002CF0010C84F828C0236A2046984702B04C
:1023800070BDA16933462A4631442046FFF7C8FE96
:102390000028F1D0002100910B4632462046FFF77D
:1023A0004DFF0028E8D14FF0500383F31188BFF3AD
:1023B0006F8FBFF34F8FFEE79406002070B582B099
:1023C00006460C46FFF7ECFB01A8FFF7ABFF019BAD
:1023D00033BB0546E4B9B04213D22246711B124BFF
:1023E0001868FFF773F9FFF775FCD8B94FF0E023D1
:1023F0004FF08052C3F8042DBFF34F8FBFF36F8FA0
:1024000010E0FFF767FC29463046FFF7A1FF09E01F
:10241000064A126812680AB90124DEE71C46DCE7A6
:10242000FFF758FC02B070BD8C060020900600201B
:1024300010B588B002E0049B002B0FDA002204A93B
:102440003D4B1868FFF77FF8002872D0049B002BE3
:10245000F1DA07990698059B9847ECE7069C6369B3
:1024600013B1201DFEF7F4FD03A8FFF75BFF024642
:10247000049B092BE2D8DFE803F00505052F364E53
:1024800005052F3694F8283043F0010384F82830EE
:10249000059BA16919442046FFF742FE0028CDD0D4
:1024A000236A2046984794F8283013F0040FC5D0CB
:1024B000A269002100910B46059802442046FFF7CF
:1024C000BDFE0028BAD14FF0500383F31188BFF34B
:1024D0006F8FBFF34F8FFEE794F8283023F001038E
:1024E00084F82830AAE794F8283043F0010384F8F0
:1024F00028300599A16129B1034601442046FFF720
:102500000FFE9BE74FF0500383F31188BFF36F8FEB
:10251000BFF34F8FFEE794F8283013F0020F04D07A
:1025200023F0010384F8283088E7204600F0A6F95C
:1025300084E708B010BD00BF8C06002000B583B052
:1025400001A8FFF7DDFD0199FFF738FFFFF770FFE6
:10255000F6E70000EFF305832BB9064B186828B99E
:1025600001221A6070476FF0050070474FF0FF308E
:10257000704700BF780D0020EFF3058373B90A4B55
:102580001B68012B0DD110B50024084BDC77064BDE
:1025900002221A60FFF7B8FA204610BD6FF005005E
:1025A00070474FF0FF307047780D002000ED00E0DD
:1025B000F0B587B000240594EFF3058404BBF8B1AF
:1025C000002A34D0156893692BB11E46013B372B86
:1025D00002D9002015E01826536813F0010F3FD1EF
:1025E000546984B14FEA940C93682BB1D7685B2F80
:1025F00002D9176907B184B943B14FF0FF330BB368
:10260000059807B0F0BD4FF0800CEDE7D368A3B993
:102610001369ABB14FF0FF33F1E7029301970096D6
:102620000B4662462946FFF701FA0590E8E7154692
:10263000002318264FF0800CE1E74FF0FF33DEE770
:102640000023DCE705AB019300960B461FFA8CF2E2
:102650002946FFF726FA0128D2D000230593CFE7B9
:102660000020CEE708B5EFF3058333B908B90020A1
:1026700008BDFFF7ABFB0020FAE76FF00500F7E7B6
:10268000034B0360034B0B6080231360704700BF54
:102690001C0D00201C0B0020034B0360034B0B6040
:1026A0004FF4807313607047C00A0020C0060020FA
:1026B000124A12F0070F1ED0D11D21F00701C1F5FB
:1026C000705313440A460E480260002141601344CF
:1026D000083B23F007030B48036059601960991AFF
:1026E00051601360084B1960084B1960084B4FF09C
:1026F00000421A6070474FF47053E4E79C0D0020CD
:10270000940D0020900D0020880D00208C0D0020DD
:102710007C0D0020164B1A461B688342FBD3516880
:1027200002EB010C844509D0416800EB010C6345C4
:1027300009D00360904219D010607047406801448E
:1027400051601046F0E710B40A4C2468A3420BD045
:102750005B681944416013681B680360904200D0B5
:1027600010605DF8044B70470460F7E7704700BFE6
:10277000940D0020900D002038B50446FFF710FAA4
:10278000384B1B68B3B1384B1B681C4250D1002C2E
:1027900050D004F1080214F0070F02D022F0070213
:1027A0000832002A55D0314B1B68934253D330492D
:1027B0000C6804E0FFF77CFFE5E721461C466368F0
:1027C000934202D22368002BF7D1264B1B68A34209
:1027D00043D00D68083523680B6063689B1A102B83
:1027E00010D9A01810F0070F08D04FF0500383F352
:1027F0001188BFF36F8FBFF34F8FFEE743606260B6
:10280000FFF788FF626819490B689B1A0B6019492A
:1028100009688B4201D217490B60134B1B681343A5
:10282000636000232360144A13680133136002E0DD
:10283000002500E00025FFF74DFA15F0070F0ED038
:102840004FF0500383F31188BFF36F8FBFF34F8FA7
:10285000FEE70025EFE70025EDE70025EBE728463A
:1028600038BD00BF900D00207C0D00208C0D002095
:10287000940D0020880D0020840D0020002834D005
:1028800038B50446A0F1080550F8043C174A126810
:10289000134208D14FF0500383F31188BFF36F8FB9
:1028A000BFF34F8FFEE750F8081C41B14FF05003C3
:1028B00083F31188BFF36F8FBFF34F8FFEE723EAD7
:1028C000020340F8043CFFF76BF954F8041C084A73
:1028D00013680B4413602846FFF71CFF054A136872
:1028E00001331360FFF7F6F938BD70477C0D002007
:1028F0008C0D0020800D002082B0002301930D4B31
:102900001B68B3F1FF3F08D04FF0500383F31188E9
:10291000BFF36F8FBFF34F8FFEE74FF0500383F38A
:102920001188BFF36F8FBFF34F8F019B002BFCD03B
:1029300002B070472C00002008480068006880F34F
:1029400008884FF0000080F3148862B661B6BFF3C8
:102950004F8FBFF36F8F00DF00BF000008ED00E076
:10296000DFF80C00016841F470010160704700005D
:1029700088ED00E04FF0807340F8043C21F0010145
:1029800040F8081C054B40F80C3C40F8202C6FF038
:10299000020340F8243C4438704700BFF92800087F
:1029A000074B19680868B0E8F04F80F30988BFF357
:1029B0006F8F4FF0000080F311887047AFF30080F5
:1029C000900500204FF0500383F31188BFF36F8F01
:1029D000BFF34F8F0B4A136801331360012B00D0F4
:1029E00070474FF0E023D3F8043D13F0FF0FF7D00A
:1029F0004FF0500383F31188BFF36F8FBFF34F8FF6
:102A0000FEE700BF2C000020094B1B6843B94FF0C4
:102A1000500383F31188BFF36F8FBFF34F8FFEE72F
:102A2000013B034A13600BB983F31188704700BF61
:102A30002C0000200000000000000000000000004A
:102A4000EFF30980BFF36F8F154B1A681EF0100F5C
:102A500008BF20ED108A20E9F04F10602DE9090031
:102A60004FF0500080F31188BFF34F8FBFF36F8F8B
:102A7000FFF7D2F94FF0000080F3118809BC196804
:102A80000868B0E8F04F1EF0100F08BFB0EC108AD5
:102A900080F30988BFF36F8F704700BFAFF30080EA
:102AA0009005002008B54FF0500383F31188BFF361
:102AB0006F8FBFF34F8FFFF781F828B14FF0E023FE
:102AC0004FF08052C3F8042D002383F3118808BD12
:102AD0004FF0E022002313619361054B1B68054909
:102AE000A1FB03139B09013B53610723136170474B
:102AF00028000020D34D62104FF0E023D3F8002DC2
:102B00003D4B9A421CD04FF0E023D3F8002D3B4BB5
:102B10009A421ED030B583B0394B1A78D2B20192A6
:102B2000FF221A701B78DBB28DF803309DF803305A
:102B300003F05003334A1370334B07221A601BE033
:102B40004FF0500383F31188BFF36F8FBFF34F8FA4
:102B5000FEE74FF0500383F31188BFF36F8FBFF38D
:102B60004F8FFEE7284A1368013B13609DF803303E
:102B70005B00DBB28DF803309DF8033013F0800F5B
:102B8000F0D1214B1B68032B08D04FF0500383F387
:102B90001188BFF36F8FBFF34F8FFEE71B021A4AF6
:102BA000136003F4E0631360019BDBB2144A1370FB
:102BB0004FF0E024D4F8203D43F47003C4F8203DE6
:102BC000D4F8203D43F07043C4F8203DFFF780FF68
:102BD00000250E4B1D60FFF7C3FED4F8343F43F0D1
:102BE0004043C4F8343FFFF7A7FEFFF715F9FFF79E
:102BF00083FE284603B030BD71C20F4170C20F4141
:102C000000E400E0A04900209C4900202C000020A6
:102C1000EFF305830F2B0ED9114A9A5C114B1B78E9
:102C20009A4208D24FF0500383F31188BFF36F8F9D
:102C3000BFF34F8FFEE74FF0E023D3F80C3D03F4D2
:102C4000E063094A1268934208D94FF0500383F3B6
:102C50001188BFF36F8FBFF34F8FFEE7704700BF40
:102C6000F0E300E0A04900209C490020DFF834D0C8
:102C7000FEF7B2F90C480D490D4A002302E0D45882
:102C8000C4500433C4188C42F9D30A4A0A4C0023B6
:102C900001E013600432A242FBD300F019F8FDF703
:102CA00011FB7047000002200000002030000020CF
:102CB0009030000830000020A4490020FEE70244C4
:102CC0000346934200D1704703F8011BF9E7000067
:102CD00070B50D4B0D4D5B1B9C100026A64209D113
:102CE00000F086F90A4D0B4B5B1B9C100026A64298
:102CF00005D170BD55F8043B98470136EEE755F80D
:102D0000043B98470136F2E7883000088830000815
:102D1000883000088C3000080A44914200F1FF33EB
:102D200000D1704710B511F8014B03F8014F9142E3
:102D3000F9D110BD2DE9F0478C468E46089E154608
:102D400004461946002B40F0D080724547D9B2FAAC
:102D500082F74FB1C7F120030EFA07FC20FA03F304
:102D6000BD4043EA0C0CBC404FEA154EA8B2BCFB78
:102D7000FEF8230C0EFB18CC08FB00F943EA0C43C9
:102D8000994528D9EB1808F1FF3204D2994502D9A8
:102D9000A8F102022B44A3EB0903A4B2B3FBFEFC8F
:102DA0000EFB1C330CFB00F044EA0344A04214D990
:102DB0002C190CF1FF3304D2A04202D9ACF102036A
:102DC0002C44241A43EA02401EB1FC400023346024
:102DD0007360BDE8F0874246DDE76346F1E7002A0D
:102DE00079D0B2FA82F3002B3FD01946C1F120030B
:102DF00002FA01F52EFA03F20EFA01FE20FA03F3AD
:102E000043EA0E034FEA154E00FA01F4B2FBFEFC52
:102E1000AFB20EFB1C201A0C0CFB07F842EA004272
:102E200090455AD9AA180CF1FF3004D2904502D926
:102E3000ACF102002A44A2EB08029BB2B2FBFEFCFA
:102E40000EFB1C220CFB07F743EA02439F4246D9C4
:102E5000EB180CF1FF3204D29F4202D9ACF102020E
:102E60002B44DB1B42EA004202E0AEEB02030122EC
:102E70004FEA154EAFB2B3FBFEFC200C0EFB1C3329
:102E80000CFB07F840EA034398452AD9EB180CF1EC
:102E9000FF3004D2984502D9ACF102002B44A3EBD9
:102EA0000803A4B2B3FBFEFC0EFB1C330CFB07F7BC
:102EB00044EA0344A74216D92C190CF1FF3304D27B
:102EC000A74202D9ACF102032C44E41B43EA0040C0
:102ED0000F46114678E71F2188E76046ABE7624658
:102EE000BFE76046DBE76346EFE7734506D916B9EF
:102EF000002108466DE7C6E9000EF9E7B3FA83F74B
:102F000087B9734501D3824207D8841A6EEB030355
:102F100001209C461EB900215BE73846FAE7C6E966
:102F2000004CF8E7C7F1200CBB4022FA0CF51D431A
:102F300020FA0CF12EFA0CF30EFA07FE41EA0E010C
:102F40004FEA154900FA07F4B3FBF9F81FFA85FEBA
:102F500009FB18300B0C08FB0EFA43EA00439A45B4
:102F600002FA07F240D9EB1808F1FF3004D29A4573
:102F700002D9A8F102002B44A3EB0A0389B2B3FBE8
:102F8000F9F809FB183308FB0EFE41EA03418E45B0
:102F90002CD9691808F1FF3304D28E4502D9A8F163
:102FA0000203294443EA0040A0FB0298A1EB0E0172
:102FB0004145CE46434602D306D14C4504D2B9EB37
:102FC000020E68EB05030138002EA4D0B4EB0E020C
:102FD00061EB030101FA0CFC22FA07F34CEA03034C
:102FE000F940C6E9003196E74046C5E74346D9E7D0
:102FF000F8B500BFF8BC08BC9E467047F8B500BFE6
:08300000F8BC08BC9E467047B5
:103008006C656431000000006C65643200000000EB
:103018006C656433000000006C65643400000000D7
:1030280064656661756C745461736B0049444C4502
:1030380000000000546D725100000000546D7220B1
:1030480053766300283000080000000000000000EC
:10305800000000000000000000020000180000004E
:103068000000000000000000000000000000000058
:08307800010203040607080928
:08308000B4FCFF7F0100000019
:04308800E901000852
:04308C00C501000872
:1030900008000000200300000400000058020000A7
:1030A000020000009001000001000000C8000000C4
:1030B00001000000100000000024F400AAAAAAAA3F
:0400000508002C6D56
:00000001FF
